S00E0000752D626F6F742E73726563C0
S315802000002A82AE849301000097F20E0083B202CA40
S3158020001073905210731040109B021040D60293F2B8
S3158020002002FF168105433A0333856240EF606149BA
S315802000302A84EF10A04C97F20E0083B2A2F50543D6
S315802000402FA96208631F09002285EF60414823B0EB
S31580200050910C23BC410A97E20E0083B2A2772FA08F
S31580200060020AA28197E20E0083B2C27605432FA3AD
S31580200070620CE31E03FE05433313430083B3810CD6
S31580200080B3E3630023B4710C2FA0020A6314091012
S31580200090EFD0127B1305000017FF0E00033F0FCF12
S315802000A0029F2A89AE89328A4A8197F20E0083B2CC
S315802000B0E2ADB30F5A40638F4209528397F30E0005
S315802000C083B3C3BD03BF0200A1022330E301210312
S315802000D0E3CA72FE17E30E000333C36497F30E0060
S315802000E083B343E1630873067E93FE93033F8300C5
S315802000F00D4E631BCF01033E0300033F03017E9F0A
S315802001007E9E2330EE012DA897FE0E0083BE0EDF45
S31580200110FE9E93520F02137FFF0F094E6312CF0369
S31580200120033E0300614FB382E203B38A5E008332CB
S31580200130030103BF8A00169F7E9F7E9E2330EE0199
S315802001406103E34573FA97F20E0083B222B6FE92DC
S315802001507390521097F20E0083B242B4FE9217F338
S315802001600E000333A3877E936387620023B0020049
S31580200170A102E3CD62FEEF104069EF10606997F22D
S315802001800E0083B2A288B38EF2014E85D2851304E7
S30F802001900000828E73005010F5BF28
S315802001A0AA87054709456385E700F9173335F000A7
S315802001B0B7585253938848350148814573000000CB
S315802001C0828082807D557E150D0582807D557E15A7
S315802001D00D0582807D557E150D0582807D557E1587
S315802001E00D0582807D557E150D0582807D557E1577
S315802001F00D0582807D557E150D058280AA869717EE
S31580200200000083B7A7F17D557E15B9CB0905B1C905
S31580200210986119E7858AA1E27D557E150905828038
S3158020022017180000033808EF9718000083B808EEE7
S3158020023001466316C8007D557E15390582808867FC
S31580200240636DA700946FB206AA966378D7009C6BDD
S315802002503E97098F98E1014582800506C697D1BFD2
S315802002600D058280411122E006E450452A84232808
S315802002700500AA850145EF00F00D08C8A26002643A
S315802002804101828081476313F60082803387F5009F
S31580200290834607003307F50085072300D700E5B797
S315802002A017E50E000335855C97F70E0083B7879494
S315802002B03CF597E70E0083B7676E1CED97E70E0037
S315802002C083B747751CF179BF1D71A2E81304F0BF6F
S315802002D0CAE04EFC560417E90E000339295997F9CE
S315802002E00E0083B929B2A6E452F856F45AF05EEC91
S315802002F062E866E486ECAE8C17EC0E00033C0C4D6F
S3158020030017FA0E00033A0A8197FA0E0083BA0ABFBB
S31580200310B3048500130B8901938B890063604C039A
S315802003204664E660A6640669E279427AA27A027B0E
S31580200330E26B426CA26C25616F10204D83B701065B
S3158020034003350C00A2973E95638C0C00636665018D
S315802003509307090863FCA706638AAB066388A90608
S3158020036083378C00094713F6F70F6300E6048D4721
S315802003706314F60483360C01A696638B0C0403B7AC
S315802003800C0163E8E60083B78C01B207BA9763F164
S31580200390D7042A8697050A009385452117050000EC
S315802003A01305C57FEFE0861315A081936147B38738
S315802003B0E702D6979467C9B797050A009385051FE4
S315802003C0170500001305057BEFE04611610CB9B7D0
S315802003D09305750414E193F505FC137505FCEF1060
S315802003E04043EDB7411122E011483284814706E42B
S315802003F0EF00403301C4834704001CC0A26002641E
S31580200400410182809146A9AC2A880147BD48B3071D
S31580200410E8003385E50083C70701034505006307A8
S3158020042017030507E385A7FE0145130708028355B1
S31580200430070011C5835706008D8F13B5170099C9FC
S315802004408357060091C309060907D5B7898F13B547
S315802004501700E1BF99C6836708003E972507619BF1
S3158020046098E209C59717000023BA07CD82804111EB
S3158020047097150000938505CD014506E4EFF01FD83A
S31580200480A2609717000023BB07CA410182801DC541
S31580200490411122E0FD552A841305050206E4EF006A
S315802004A0605C1C400505A26002641B1515009B87B5
S315802004B077023D9D61990125410182800145828097
S315802004C05D71A2E026FC4EF452F056EC5AE886E4A2
S315802004D04AF85EE4E147971900009389A9C4971AE0
S315802004E0000083BA2AC623A8F90083E70A019384E9
S315802004F08A012A842E8A328BBE9A19C1930B850152
S3158020050063EF540303A609017D5503370A00931729
S31580200510060281937E153DE409056375F7007D55B6
S315802005207E1515052330FA00A6600664E2744279AA
S31580200530A279027AE26A426BA26B61618280268509
S31580200540EFF0FFF4DC40131905021B070500B3F713
S3158020055067011359090263846701CA9455B783A733
S315802005600901B99F23A8F9006DD803370A0082179D
S315802005708193E364F7FE5E854A86A685EFF09FD059
S31580200580CA9BE1BF1505E36FF7F8213693058401F1
S315802005900145EF00205C23AAA90061462285971594
S315802005A00000938525B8EFF0FFCD83E7090101454B
S315802005B095BF5D71A2E026FC86E44AF84EF452F09F
S315802005C056EC971400009384E4B79C6003D705000B
S315802005D0328403E907013E9911EB19C6E1071CE233
S315802005E063E4270123300400814405A8971A00007C
S315802005F0938ACAB42A8A03B50A00AE890DC9B286FF
S315802006002E86D285EFF05FE01DC111C41C6063E4A5
S3158020061027012330040083B40A00A6600664427949
S31580200620A279027AE26A2685E27461618280846098
S31580200630930A8100E10463E524014DF475B7A26431
S31580200640EDDCD6864E86D2852685EFF0FFDBA26747
S3158020065063E3270102E465D569D0A2671CE075BFF4
S3158020066055CD5D7126FC86E4A2E04AF84EF452F020
S3158020067056ECAE84B5CD328925CE2A84B689930AA6
S315802006808100033A04002685135A1A00D285EF008A
S31580200690603D630F45055686A6854A85EFF07FF136
S315802006A001E583D70400A9E7A265B9CD9385050224
S315802006B0AE8703D7070089076DFF033A0400338688
S315802006C0B74010E06366CA042685EFF0BFBBA265FB
S315802006D041464A85C105EFF0FFBA638F0902A267BA
S315802006E0DC43B3F73701638937032330440151BF95
S315802006F07D557E150905A6600664E2744279A27945
S31580200700027AE26A616182807D557E153905E5B778
S315802007107D557E151505C5B70145F1BF7D557E15DD
S315802007200905828039714EEC06FC22F826F44AF0BF
S3158020073052E856E45AE0AA8911ED7D557E150905C1
S31580200740E2704274A2740279E269426AA26A026BFA
S31580200750216182802E85F5D1B684E5D2328BCE85F5
S3158020076001463A89BE8A428AEFF0BFE42A8441C193
S3158020077063070A005C41B3F74701639A470763051D
S315802007800B005C402320FB0063850A001C6423B099
S31580200790FA007D5697050000938545434E85EF00E8
S315802007A0602A11ED4274E270E269426AA26A026BA3
S315802007B0A6854A85A27402790546216111B303670D
S315802007C004009C607D5598E0036604007E1515051F
S315802007D0E3E8C7F6E30309F69305040283D7050009
S315802007E08905EDFF4A85EFF0FFA9014591BF7D552B
S315802007F07E153905B1B73DC5411122E006E41714AF
S315802008000000130424941C601717000003370793F5
S31580200810944B1396060201923E966366A70017179D
S315802008200000233D07909305050203D7050089051F
S315802008306DFF036705001D07BA95E1993307B5401B
S31580200840359F0D8E98CBEFF0FFA3006001451048B1
S31580200850930584012136EF00E02F48C8A260026408
S315802008604101828082801971A6F4CAF0CEECD2E84A
S31580200870D6E4DAE05EFC62F866F46AF06EEC86FC1A
S31580200880A2F8971C0000938CEC8B03B40C003E8955
S31580200890AE8B83670401FD55B684BA8A3E942A8B33
S315802008A0B28D42E4468DEF00E01B03B30C001B0C97
S315802008B0150013170C02135CF701130A0402330385
S315802008C06940B3098A0126934E9337070200636FE6
S315802008D067063B87240118C04146DE85130504013F
S315802008E02322B4012334A401EFF0DF996286DA85CE
S315802008F05285EFF03F992686D6854E85EFF09F98D4
S31580200900A265338599004A86EFF0DF970366040057
S3158020091083B40C0001451D064E96619A059E90C8AB
S31580200920938584012136EF00E022C8C80145E67010
S315802009304674A6740679E669466AA66A066BE27BE1
S31580200940427CA27C027DE26D096182807D557E1586
S315802009502505F1BF9707000083B7C77E984BB7065A
S31580200960020001459317070281939387070263F854
S31580200970D70037050200199D021501910115828045
S315802009807D557E150D058280014869BB8146C9B992
S31580200990D9C50111AA877D5526E47E1506EC22E865
S315802009A0B284090525CA7D557E1536840905BDC2C2
S315802009B07D557E150905B9CF7D557E1513F707011F
S315802009C00D0529EB7D557E1513F7F70F0D0539C3D8
S315802009D07D557E1585460905630ED7027D557E1584
S315802009E013F76700914609056306D7027D557E1564
S315802009F01307F00F0905636FF700B7070200A117E9
S31580200A009CE1EFF03FF5B707020088E0938787FCEB
S31580200A101CE00145E2604264A264056182807D55C6
S31580200A207E15090582801377450009C79377050BC4
S31580200A3091E7B9BF7D557E15090582807D557E1546
S31580200A400D0582802A8719E2014582808356070018
S31580200A5083D705003B85F6406DF9E5DA7D160907D3
S31580200A608905D5B72A8701456308B50093171500F0
S31580200A70BA9783D7070091E382800505F5B793F768
S31580200A8035008DCB05CA170700001307A71583C726
S31580200A9005007D368505A98F93F7F70F8A07BA97C4
S31580200AA09C431B558500A98F1B85070001C693F79C
S31580200AB03500F1FFF115137836009B572600AE8856
S31580200AC01B562600170300001303C3110DEE630B7C
S31580200AD008028217F9838D07BE9517070000130732
S31580200AE0671083C715007D388505A98F93F7F70F83
S31580200AF08A07BA979C431B558500A98F1B850700BB
S31580200B00E31108FE828083A6480091087D36A98E4F
S31580200B1013F7F60F0A071A9718439BD68600358F48
S31580200B209376F70F8A069A9694421B578700B98E3A
S31580200B3013F7F60F0A071A9718439BD68600358F28
S31580200B409376F70F8A069A9688421B578700398DA7
S31580200B500125ADBF41111345F5FF06E4EFF03FF2C5
S31580200B60A26001251345F5FF410182800000000027
S31580200B7025733A20556E6B6E6F776E2072656C6F1B
S31580200B80636174696F6E207479706520256C6C78CA
S31580200B900A0000000000000025733A2052656C6F21
S31580200BA0636174696F6E206174202570206973205B
S31580200BB06F7574206F662072616E67652028256C3C
S31580200BC078290A0000000000560061007200540057
S31580200BD06F00460069006C00650000000000000080
S31580200BE000000000963007772C610EEEBA510999E5
S31580200BF019C46D078FF46A7035A563E9A395649E41
S31580200C003288DB0EA4B8DC791EE9D5E088D9D29764
S31580200C102B4CB609BD7CB17E072DB8E7911DBF90C0
S31580200C206410B71DF220B06A4871B9F3DE41BE84E4
S31580200C307DD4DA1AEBE4DD6D51B5D4F4C785D38340
S31580200C4056986C13C0A86B647AF962FDECC9658AE4
S31580200C504F5C0114D96C0663633D0FFAF50D088D40
S31580200C60C8206E3B5E10694CE44160D5727167A2E4
S31580200C70D1E4033C47D4044BFD850DD26BB50AA540
S31580200C80FAA8B5356C98B242D6C9BBDB40F9BCAC64
S31580200C90E36CD832755CDF45CF0DD6DC593DD1ABC0
S31580200CA0AC30D9263A00DE518051D7C81661D0BFE4
S31580200CB0B5F4B42123C4B3569995BACF0FA5BDB840
S31580200CC09EB802280888055FB2D90CC624E90BB1E4
S31580200CD0877C6F2F114C6858AB1D61C13D2D66B640
S31580200CE09041DC760671DB01BC20D2982A10D5EFA4
S31580200CF08985B1711FB5B606A5E4BF9F33D4B8E800
S31580200D00A2C9077834F9000F8EA8099618980EE1A3
S31580200D10BB0D6A7F2D3D6D08976C6491015C63E6FF
S31580200D20F4516B6B62616C1CD83065854E0062F223
S31580200D30ED95066C7BA5011BC1F4088257C40FF57F
S31580200D40C6D9B06550E9B712EAB8BE8B7C88B9FCA3
S31580200D50DF1DDD62492DDA15F37CD38C654CD4FBFF
S31580200D605861B24DCE51B53A7400BCA3E230BBD4A3
S31580200D7041A5DF4AD795D83D6DC4D1A4FBF4D6D3FF
S31580200D806AE96943FCD96E34468867ADD0B860DAA3
S31580200D90732D0444E51D03335F4C0AAAC97C0DDDFF
S31580200DA03C710550AA41022710100BBE86200CC923
S31580200DB025B56857B3856F2009D466B99FE461CE7F
S31580200DC00EF9DE5E98C9D9292298D0B0B4A8D7C7A3
S31580200DD0173DB359810DB42E3B5CBDB7AD6CBAC0FF
S31580200DE02083B8EDB6B3BF9A0CE2B6039AD2B1741B
S31580200DF03947D5EAAF77D29D1526DB048316DC7377
S31580200E00120B63E3843B64943E6A6D0DA85A6A7A1A
S31580200E100BCF0EE49DFF099327AE000AB19E077D76
S31580200E2044930FF0D2A3088768F2011EFEC206699A
S31580200E305D5762F7CB67658071366C19E7066B6EF6
S31580200E40761BD4FEE02BD3895A7ADA10CC4ADD671A
S31580200E506FDFB9F9F9EFBE8E43BEB717D58EB06076
S31580200E60E8A3D6D67E93D1A1C4C2D83852F2DF4F1A
S31580200E70F167BBD16757BCA6DD06B53F4B36B24876
S31580200E80DA2B0DD84C1B0AAFF64A0336607A04411A
S31580200E90C3EF60DF55DF67A8EF8E6E3179BE694676
S31580200EA08CB361CB1A8366BCA0D26F2536E268529A
S31580200EB095770CCC03470BBBB91602222F260555F6
S31580200EC0BE3BBAC5280BBDB2925AB42B046AB35C1A
S31580200ED0A7FFD7C231CFD0B58B9ED92C1DAEDE5B76
S31580200EE0B0C2649B26F263EC9CA36A750A936D025A
S31580200EF0A906099C3F360EEB8567077213570005B6
S31580200F00824ABF95147AB8E2AE2BB17B381BB60CD9
S31580200F109B8ED2920DBED5E5B7EFDC7C21DFDB0B35
S31580200F20D4D2D38642E2D4F1F8B3DD686E83DA1F59
S31580200F30CD16BE815B26B9F6E177B06F7747B718B5
S31580200F40E65A0888706A0FFFCA3B06665C0B011159
S31580200F50FF9E658F69AE62F8D3FF6B6145CF6C16B5
S31580200F6078E20AA0EED20DD75483044EC2B3033959
S31580200F70612667A7F71660D04D476949DB776E3EB5
S31580200F804A6AD1AEDC5AD6D9660BDF40F03BD837D9
S31580200F9053AEBCA9C59EBBDE7FCFB247E9FFB53035
S31580200FA01CF2BDBD8AC2BACA3093B353A6A3B42459
S31580200FB00536D0BA9306D7CD2957DE54BF67D923B5
S31580200FC02E7A66B3B84A61C4021B685D942B6F2A59
S31580200FD037BE0BB4A18E0CC31BDF055A8DEF022DB5
S31580200FE049424920535953546E000200780000002C
S31580200FF00000000000000000581020800000000043
S3158020100000042620000000000000000000000000F0
S31580201010000000000000000000000000000000002A
S31580201020000000000000000000000000000000001A
S3158020103000000000000000008010208000000000DA
S3158020104000000000000000000000000000000000FA
S3158020105000000000000000004400610073002000B2
S3158020106055002D0042006F006F00740000000000C4
S31580201070701020800000000070102080000000008A
S3158020108052554E54534552566E0002008800000039
S3158020109000000000000000002EB024800000000028
S315802010A016B0248000000000D401208000000000BB
S315802010B0D40120800000000044B12480000000007C
S315802010C0FC012080000000002EB824800000000053
S315802010D0B2B82480000000006EB824800000000092
S315802010E0D401208000000000A8AF248000000000EA
S315802010F0DC01208000000000E40120800000000048
S31580201100DCB8248000000000000000000000000001
S315802011100000000000000000000000000000000029
S315802011200000000000000000556245666956610196
S315802011300000000000000000000000000000000009
S3158020114000000000000000000000000000000000F9
S3158020118001458280295582806F3003625D71A2E09D
S3158020119017E40E00033404C826FC4AF84EF452F0B5
S315802011A056EC86E42A8A81442289B389A540930A0B
S315802011B020050C642E852EE4EFB0160EA265639072
S315802011C0A90A4E865285EFB0067951E913040003A9
S315802011D0338484024A941C74A1CB97650D00938531
S315802011E065D72285829729E11840FD576300F7024B
S315802011F09357574097660D009386C6D58A07B6972C
S315802012008546BB96E6009843558F98C3930700037F
S31580201210B387F4027D5897680D009388A8D3054339
S31580201220CA978C53631BB500A6600664E274427924
S31580201230A279027AE26A61618280986F931625008C
S3158020124036971443638B060113D756400A07469771
S315802012501043BB16D300D18E14C30525E1B7852450
S3158020126013040403E39754F5C1B701458280976739
S315802012700D0083C7C7CE858B014591E32955828092
S3158020128017670D00130707CD8347A7002955858B40
S3158020129099C7834707000145A18B91E32955828011
S315802012A01D712C081305000286ECA2E8A6E4CAE08C
S315802012B04EFC52F856F45AF0EF30722DE26781EFE9
S315802012C03555E6604664A6640669E279427AA27A52
S315802012D0027B25618280C86B100897650A009385FA
S315802012E0E524EF50A2432A846350A0048144C26738
S315802012F0139734008504BA9703B907004A85EFB05F
S31580201300A679B305A9004A85EFF05FE89B8704009C
S31580201310E3CF87FC97670D0083C787C493F70705BC
S315802013206393071A014571BFE26797650A00938523
S315802013306521C86BEF50E22641D5054A854A1E1A9B
S31580201340961A930445009309700217E90E00033913
S31580201350E992130A1A08938A0A02130BF00503C727
S3158020136004004DDB9B06D7FA93F6F60F938514007F
S3158020137063E1D9088547B397D70033F647013DC245
S3158020138081472E840347040019C363126713A285FD
S31580201390E9E70347F4FF4A9703470700118B55CFA8
S315802013A02287BA858346F7FF7D173306D900034601
S315802013B006001375460075F5058A09C69B860602C2
S315802013C093F6F60F130600076399C6088346F7FF40
S315802013D0CA9683C60600918AC9C2BA858346F7FF14
S315802013E07D17FDB7B3F7570113060002D1E3638358
S315802013F0C60A4A97834707008D8BF1C383C714009B
S315802014002E84CA9783C70700918BC5CFA2860347B0
S3158020141014000504B307E90083C7070013F64700C5
S3158020142075F6858B89C71B0707021377F70F130677
S31580201430000781476313C702034714004A9703476F
S315802014400700118B19CB13842600834714000504CB
S31580201450CA9783C70700918BEDFB0347040063136C
S315802014606701050481E72685EFF05FD2A284C5BD9A
S3158020147017650A001305050E2EE4EFD02606A26511
S315802014802E848347040099C3639467018547F1B707
S315802014900504C5BF83C7F4FFE38467EF03C7140041
S315802014A09307500713842400E302F7FED1BD4A97A1
S315802014B0034707001D8B11E385470504E1B52E847C
S315802014C0F1B7814759BF996773A0071073503000D1
S315802014D091BD17650D000325A5A78280411106E4DD
S315802014E003B5011017660A001306C60B8146B2851E
S315802014F0EF304225A26001454101828082804111E0
S3158020150006E4EF00C070EF002031A2600145410162
S31580201510828041112AE4A26141018280000000007C
S315802015200000000000000000000000000000000015
S315802015300000000000000000000000000000000005
S31580201540117106E40AE80EEC12F016F41AF81EFC65
S31580201550A2E0A6E4AAE8AEECB2F0B6F4BAF8BEFCF5
S3158020156042E146E54AE94EED52F156F55AF95EFDDD
S31580201570E2E1E6E5EAE9EEEDF2F1F6F5FAF9FEFDCD
S3158020158073252014F3251014732630148A86EF00D1
S31580201590806873101514A260E2610272A27242738F
S315802015A0E2730664A6644665E6650676A676467781
S315802015B0E6770A68AA684A69EA690A7AAA7A4A7B31
S315802015C0EA7B0E6CAE6C4E6DEE6D0E7EAE7E4E7FE1
S315802015D0EE7F426111617300201000000000000040
S315802015E00000000000000000000000000000000055
S315802015F00000000000000000000000000000000045
S3158020160000006F8026476F80464E411106E483375F
S31580201610851081CFEF30B00E11CD17650A001305E6
S31580201620E520EFC0B66BEF90764B17650A00130561
S31580201630E521C5BFA260410182808280011122E816
S3158020164026E406EC4AE093F405200339850E2A84A5
S3158020165097650A009385852289E497A50B00938553
S31580201660656517650A001305E522EFC0366717D32F
S315802016700E000333A3290293EF308235EFF03FE843
S3158020168099EC8337841081CF833504104264E260DD
S31580201690A26403B5810BCA87026905618287E260ED
S315802016A04264A264026905618280797122F02A846B
S315802016B026EC06F49374040C887185E893770410DD
S315802016C089CBEFF09FF4A27002742685E26445618F
S315802016D0828093770460A28591E72AE4EFF0FFF277
S315802016E02265A285EFF09FF5F9BFFD54E9BF75BF4E
S315802016F0411106E4185DB757430593872735630C58
S31580201700F70017650A001305E51AEFB0112229554F
S31580201710A260410182801C6991E717650A00130542
S31580201720651BE5B71CE291EA83B78105636EF500F8
S3158020173003B70103BA976379F50083B781051865E6
S31580201740BA979CE10145E9B788E1EDBF797122F02E
S3158020175026EC06F4AE842A8432E4EFF05FDAA287A0
S315802017600274A265A2702685E2644561828733056C
S3158020177005000F2025008280330505000F200500F7
S31580201780828079714AE806F422F026EC4EE417F935
S315802017901100032929FF630B0900B30920413384F3
S315802017A0A540B3F9A900814463E98400A27002743C
S315802017B0E2644269A2694561828033859900EFF0AF
S315802017C01FFBCA94D5B779714AE806F422F026EC35
S315802017D04EE417F911000329E9FA630B0900B309CE
S315802017E020413384A540B3F9A900814463E984006C
S315802017F0A2700274E2644269A2694561828033855F
S315802018009900EFF07FF7CA94D5B70F100000828039
S31580201810828085BFDDBF45BF411106E4EFF0FFFE24
S31580201820A26017D30E000333E333410102830111F3
S3158020183022E806ECAA9517D30E00033323772A8451
S315802018402EE4029322854264A265E26017D30E00BD
S315802018500333C3230561028382808280014582808F
S31580201860411106E4EFF0FFC6A26097F7110023AB83
S31580201870A7F0410182802A832E8E41113285B6853A
S315802018803A86BE864287C68772889A887300000009
S315802018904101828001118148014881470147814663
S315802018A001468145414506ECEFF0FFFC11E199E1C7
S315802018B0930540DFE2602E85056182800111814794
S315802018C0814801480147814601468545414506ECC8
S315802018D0EFF07FFA930740DF01E599C19B870500EA
S315802018E0E2603E8505618280011122E881482A8452
S315802018F0014881470147814601468945414506EC95
S31580201900EFF07FF709E911E40145E2604264056161
S3158020191082800CE0D5BF130540DFC5BF01112A8622
S31580201920814801488147014781468D45414506ECDE
S31580201930EFF07FF409E9130540DF99C11B85050087
S31580201940E26005618280130540DFDDBF011122E858
S3158020195081482A840148814701478146014691452D
S31580201960414506ECEFF03FF109E911E40145E260DB
S315802019704264056182800CE0D5BF130540DFC5BF78
S31580201980011122E881482A840148814701478146FE
S3158020199001469545414506ECEFF0FFED09E911E456
S315802019A00145E2604264056182800CE0D5BF130563
S315802019B040DFC5BF011122E881482A84014881473A
S315802019C00147814601469945414506ECEFF0BFEA3D
S315802019D009E911E40145E2604264056182800CE0F8
S315802019E0D5BF130540DFC5BF2A8637555253AE86ED
S315802019F08148014881470147814513054535A5BD65
S31580201A002A8637454244011181480148814701474A
S31580201A10814689451305E53406ECEFF0DFE5E26083
S31580201A20012505618280797122F026EC4AE84EE410
S31580201A3006F452E003B7810DAA842E89B2893684B2
S31580201A4019C728FB03B5810D8545EF006028BD4762
S31580201A5063E3971A8E0497670D009387A747A69707
S31580201A608C6317650A00130565E9EFC03627106475
S31580201A70CE86CA8517650A00130545ECEFC0162663
S31580201A806382010203B70104058B09CF83B58107E1
S31580201A90106417650A001305E5EC0D8EB305B94071
S31580201AA0EFC0D6231470106C0C6817650A001305D6
S31580201AB0E5ED8549EFC09622147C10780C74176565
S31580201AC00A00130525EFEFC07621346830642C6038
S31580201AD017650A00130585F0EFC0562034743070E0
S31580201AE02C6C17650A001305E5F1EFC0361F54608C
S31580201AF0307C2C7817650A00130545F3EFC0161E37
S31580201B00546C50684C6417650A001305A5F4EFC021
S31580201B10F61C547850744C7017650A00130505F628
S31580201B20EFC0D61B746470604C7C17650A00130561
S31580201B3065F7EFC0B61A7470706C6C6817650A000A
S31580201B401305C5F8EFC09619747C70786C74176588
S31580201B500A00130525FA1374E9FFEFC03618835758
S31580201B6004000D478D8B6393E700894917650A002A
S31580201B701305C5FAEFC09616930404FF176A0A0068
S31580201B80130A4AFA83D5040052858904EFC01615B4
S31580201B90E31A94FE17650A00130545F9EFC016145B
S31580201BA085478355040017F60A001306260F639689
S31580201BB0F90017860B001306E6D617650A0013056B
S31580201BC065F7EFC0B6118947639EF90083552400D7
S31580201BD017860B00130606D517650A00130585F5AB
S31580201BE0EFC0D60F4A85EF80E44E17050D0013050A
S31580201BF065CFEFB0F63EA68517650A00130505D298
S31580201C00ADB523BCA10C82800145828082800145AE
S31580201C10828082808280797122F02AEC32E836E4D2
S31580201C2006F42E84EF10A4226265A266426663546F
S31580201C30050493171500858325476383E702636E22
S31580201C40F700ED578583E98F15476396E7020145AF
S31580201C5017D30E000333831609A82D47639DE7000B
S31580201C60014517D30E000333E3BD0293A27022856C
S31580201C70027445618280A285EFF0FFDA00000000C1
S31580201C8000E104E523382501233C35012330450333
S31580201C902334550323386503233C75032330850578
S31580201CA0233495052338A505233CB5052330150611
S31580201CB023342506014582800000000000000000B4
S31580201CC0000000000000000000000000000000006E
S31580201CD0006104650339050183398501033A0502CC
S31580201CE0833A8502033B0503833B8503033C050436
S31580201CF0833C8504033D0505833D850583300506A4
S31580201D000331850613B515002E95828000000000CC
S31580201D10000000000000000000000000000000001D
S31580201D2036962CF130F501458280000000000000B7
S31580201D300000557126FDAE8497650A00938505F8C7
S31580201D4086E5A2E14AF94EF552F156ED5AE95EE56D
S31580201D5062E1E6FCEAF8EEF42AE482E082E482E8B4
S31580201D6082ECEFB0550A63530502814AAE600E6459
S31580201D70EA744A79AA790A7A4A6BAA6B0A6CE67C53
S31580201D80467DA67D5685EA6A69618280DC40B706F3
S31580201D90FF002A891BD787011B968701598E1B979F
S31580201DA08700758F598E4167130707F09BD7870069
S31580201DB0F98F5D8E1B060640A6852685EFD0252EBB
S31580201DC0AA8A6359050017650A001305A5F0EFC096
S31580201DD0E67069BF2265CA85130B8102EFA0954400
S31580201DE09C002A84976B0A00938B4BF27D5C3EE89D
S31580201DF0930C4102130D0103F95DE34804F6226535
S31580201E000146A285EFB0A515AA8A22650148DA8700
S31580201E100147DE862286CA85EF70B632AA8963009C
S31580201E20850D426513060002D685EFA0563B426596
S31580201E3093050004EFA0D6442A8A0DC542659305F2
S31580201E400002EFA0164EAA8A930500025285EFA0C3
S31580201E50564DBB8AAA4093870A041810B38AE70096
S31580201E6023800AFEA277C2650148FD173385370194
S31580201E702AFCE687014781466A8626854EF8EF70DA
S31580201E80B64FAA8A635C0500630AB501AA851765E1
S31580201E900A00130525E8EFC06664C9BD2265814620
S31580201EA017660A00130686E9A285EFB0055205C992
S31580201EB092552685EFB0D50C2AEC17650A001305B6
S31580201EC0E5E7EFA0763DE2659B0605008147014761
S31580201ED017660A00130686E62685EFC0557D22659D
S31580201EE0A285EFA035362A8409BFAA8503B5010CC1
S31580201EF0630FB500411106E4EFF0BFE3AA87635371
S31580201F00A0008147A2601B85070041018280014590
S31580201F108280411122E006E4EFF03FFD0144635ABE
S31580201F2005002A84AA8517650A001305A5E1EFC056
S31580201F30E65AA2602285026441018280797126EC6C
S31580201F4006F422F05C41B706FF00AA851BD78701DD
S31580201F501B968701598E1B978700758F598E4167EF
S31580201F609BD78700130707F0F98F5D8E1B06060225
S31580201F70AA84EFD0C512635F05002A8417650A00FC
S31580201F80130545DFEFC08655A27022850274E26470
S31580201F904561828097650A00938545E12685EFB065
S31580201FA085662A846352050217660A00130686E030
S31580201FB081452685EFD085052A84635705001765D8
S31580201FC00A001305A5DF7DBF83A7810B3706FF0097
S31580201FD017650A00130585E09BD687011B97870125
S31580201FE0558F9B968700F18E558FC166938606F016
S31580201FF09BD78700F58FD98F3EC6EFA0F6299B0603
S315802020000500A2859147780017660A00130606DD2B
S315802020102685EFC0D5692A84E34805F603B50101F4
S31580202020A685EFF01FD11B040500E35FA0F40144D1
S31580202030A1BF411106E483B5810B17650A001305FC
S31580202040E5DAEF90004683B5010C89C9A260176551
S315802020500A001305A5DA41016F90C045A2604101AF
S31580202060828083B7010C81C71CE1014582803D5562
S3158020207082800000000000000000000000000000B8
S31580202080AA8293360601F5E293867200E19A638AE4
S315802020905600338756402380B2008502E3EDD2FE78
S315802020A0198E93F5F50F93968500D58D9396050118
S315802020B0D58D93960502D58D137786FFB386E2005C
S315802020C01377870F11CF3307E04013070710B382AA
S315802020D0E24097C70E0083B767600583BA978287E9
S315802020E023B0B20023B4B20023B8B20023BCB2001E
S315802020F023B0B20223B4B20223B8B20223BCB20206
S3158020210023B0B20423B4B20423B8B20423BCB204ED
S3158020211023B0B20623B4B20623B8B20623BCB206D5
S3158020212023B0B20823B4B20823B8B20823BCB208BD
S3158020213023B0B20A23B4B20A23B8B20A23BCB20AA5
S3158020214023B0B20C23B4B20C23B8B20C23BCB20C8D
S3158020215023B0B20E23B4B20E23B8B20E23BCB20E75
S3158020216093820210E3EED2F61D8A01CAB386C2009C
S315802021702380B2008502E3EDD2FE8280000000003B
S3158020218000000000000000000000000000000000A9
S31580202190B302B54063E3C20061A0AA823295B295AC
S315802021A0C146636BD602137685FF630AC500FD158B
S315802021B0838705007D152300F500E31AC5FE93F677
S315802021C075009DE69D0263F8A200E1159C6161156C
S315802021D01CE1E3ECA2FEE512630A5500FD15838718
S315802021E005007D152300F500E31A55FE16858280AD
S315802021F0139E3600B30EC041E1999C619D023397B0
S31580202200D701E1159C6133D6C701598E611510E13E
S31580202210E3E7A2FEE512B695C1B7000000000000F4
S315802022206308B50CAA8FB302C500C1466367D60A78
S3158020223013067500619A630AC500838705008505A4
S315802022402300F5000505E31AC5FE93F67500D5E251
S31580202250938212F8637855069061946598699C6D8F
S3158020226003B8050283B8850203B3050383B38503C8
S3158020227003BE050483BE850403BF050510E114E56E
S3158020228018E91CED23300503233415032338650212
S31580202290233C75022330C5052334D5052338E5052F
S315802022A0B06DB471B875BC7903B885079385050878
S315802022B030ED34F138F53CF9233C05071305050844
S315802022C0E36C55F893828207637855009C61A1055B
S315802022D01CE12105E36C55FE9D02630A5500838728
S315802022E0050085052300F5000505E31A55FE7E8544
S315802022F08280139E3600B30EC041E1999C61E5121F
S3158020230033D7C7019C65A1053396D701598E10E135
S315802023102105E36755FE9D02B695C1B700000000F2
S3158020232000000000411197650A00938525AE7D55F2
S3158020233006E4EF403209A26005053335A00041014D
S315802023408280411106E4EF50F303EFC0D210A260E1
S31580202350014541018280B28736862A88BA9663E112
S31580202360C50263F5D5024111C28517650A0013059A
S31580202370E5AA06E4EFC08616A2603955410182801F
S31580202380E363F6FE0145E3F0D7FE82800145E37ED6
S31580202390F6FEE3FAF6FC8280797122F017C40E00ED
S315802023A00334447F26EC4AE84EE452E0AA89328AF6
S315802023B02E85B6843A899306040F1307840F6946BF
S315802023C0A28506F4EF20E06C01C917650A00130583
S315802023D065A8EFA0915581A06C78707C85E59307E0
S315802023E084101307041097C60E0083B6A67A694612
S315802023F0D2854E85EF60802505C917650A001305AD
S3158020240065A8C1BF4A87A68617650A00130505A752
S31580202410EFF07FF469D50545A2700274E2644269C3
S31580202420A269026A4561828083350410033684104E
S315802024309DE103350410EFC0300517C50E00033526
S315802024406575EF20B01A69D917650A00130585A628
S31580202450EFC0C608C9B74A87A68617650A0013053E
S31580202460E5A4EFF05FEF45F9E9B7411106E4EFF017
S315802024700FFAA260410182800145828071714EE50A
S3158020248052E106F522F126ED4AE9D6FCDAF8DEF4A9
S31580202490E2F0E6ECEAE8EEE404712A8AAE8983A7C4
S315802024A0C413CD8F23AEF41293F715008DCB13066C
S315802024B00014814517C50E000335C56DEFF05FBC4E
S315802024C017650A00130585A1EF80334C97C70E0048
S315802024D083B7476C054723ACA71223AEE7129397A1
S315802024E0490363D8070003350A0001C58145EFC03B
S315802024F0661293F729006387073603350A00141876
S31580202500930A81035686B68536EC17C40E000334AB
S315802025106468033B8A0202F802FCEF20C04B2A89BA
S315802025202338040C2334040CEF206051854763073D
S31580202530F5028947E266630CF516DA8517650A0087
S315802025401305459AEFB09679930550FA17650A00D8
S315802025501305C5A7EFB09678054431A1CA851765BE
S315802025600A001305A59AEFB0767703270900370668
S31580202570FF00832B84139B5687019B178701D58F5A
S315802025809B168700F18ED58FC1661B578700938651
S3158020259006F0758FD98F37270527812713076795EB
S315802025A017650A001305059A639AE7004A85EF1096
S315802025B0D04A09E917650A001305459AEFA0F13636
S315802025C0A95569B74A85EF20C00063890B02176534
S315802025D00A001305259AEFA051354A85EF10104E33
S315802025E001E917650A001305E59AEFB0366FC9BF72
S315802025F017650A001305059BEFA031338345D90162
S31580202600E9476389F50017650A001305259AEFB017
S31580202610F66C7DB7E30609FA8347E901114763879C
S31580202620E7046363F70405476385E7000947E39674
S31580202630E7F0930709047CE40327C9003706FF00E7
S315802026409B5687019B178701D58F9B168700F18E16
S31580202650D58FC1661B578700938606F0758FD98FD5
S31580202660821781937CE819A83947D1B79306040D40
S315802026701306840C81454A85EF10F04C130600041E
S31580202680CA8513058400EFF0BFB085472330240127
S315802026903CE44A85EF20A03A85476306F5048947BE
S315802026A0630BF50E17650A001305459D01A2930756
S315802026B0040D3EE49307840C3EE0814813084006CF
S315802026C0894769475686CA852285EF70A075634AF1
S315802026D00500E277233C240528D43CF0C2773CE8E9
S315802026E04DBFF955A5B58347E901B705FF00A3007E
S315802026F0F40E8347F9012300F40E8347C901230191
S31580202700F40E0327C9009B5687019B178701D58F17
S315802027109B168700ED8ED58FC166938606F01B5754
S315802027208700758FD98F9B87070482178193CA97D5
S315802027307CE0032709011B5687019B178701D18FD0
S315802027401B1687006D8E1B578700D18F758FD98F6B
S31580202750821781937CEC8347D901A301F40E8347AA
S31580202760340E0D476385E70061476398E70AD6866E
S315802027701306840E8D4517C50E000335A541EF201F
S31580202780A0666355050CF9576302F50C17650A0098
S315802027901305459121A82C54286C1306140EEF603E
S315802027A0605501C917650A001305C584EFA0F11786
S315802027B065B32C54286C1306040EEF60005711C5A0
S315802027C017650A0013058584D5B72C54286C130603
S315802027D0240EEF60604B11C517650A001305058529
S315802027E0F1B72C54286C1306340EEF60404D11C57A
S315802027F017650A001305058555BF286CEF702005DF
S3158020280068E02C54286C1306840DEF60205821D95B
S3158020281017650A001305858451BF3C6463850716B6
S31580202820584C3706FF009B5687019B178701D58F0B
S315802028309B168700F18ED58FC1661B57870093869E
S3158020284006F0758FD98F821781937CF40347140EF7
S31580202850B9476317F70078647C7478ECBA977CF470
S31580202860233C240B93F74900B1CF03350A0063003C
S3158020287005148145EFB0165A17C70E0003378731E6
S315802028808346170EB94783358A0003360A0163EBE0
S31580202890D7029167D107B3D7D700858B85C70347E2
S315802028A0270EF54763E0E702B74700349387070290
S315802028B0B3D7E700858B99C701478146EFF0DFAD17
S315802028C02A8455E193F789000149638E0716EFF034
S315802028D0DFB903BD840D83CA140EB94703BC840BAC
S315802028E083BC040C83BB840C03B8040D03CB040E79
S315802028F02A896A84639AFA0263080B0237071000D2
S315802029007D1793172800BA97B706F0FF0147FD8EEB
S315802029103018B7052000094542ECEF90C600631EAB
S31580202920052262746268E0F43C109B0D0B003EE049
S31580202930D686B7080008DE8722875E86A2856E85C2
S31580202940EF107036A27A55CD2AEC5A85EF101047B3
S3158020295062669307A0FDAA856311F60663040900C3
S31580202960EFF0CFAA7554AA7022850A74EA644A6960
S31580202970AA690A6AE67A467BA67B067CE66C466D61
S31580202980A66D4D6182803C7091CF2C54286C1306A5
S31580202990840EEF608040E30B05EA17550A00130585
S315802029A0657329B517550A001305457501B597C76F
S315802029B00E0083B7275C8863C1B585476395FD0084
S315802029C0ED576308F600B38A8A40B707000863E3A9
S315802029D0FA0217550A001305E574EFB036301755FD
S315802029E00A0013052579EFB0762F6309091CEFF0CD
S315802029F0EFA1E9A217550A001305C575EFB0162E6B
S31580202A00F9BF9385FA0313750DFCB3878A4093F536
S31580202A1005FCFCE8898DEFE09FE163140B00638A57
S31580202A208B0A6378940BA2776375FC0ABC64D9CB36
S31580202A3003C7640291476318F70017550A001305E8
S31580202A406575EFA0816E93F709018DCFE878EC7CD0
S31580202A509386841113860411898DEF20202B2A8456
S31580202A60E31305F083B5041117650A0013058583E2
S31580202A70EF80635683B5841117650A001305858315
S31580202A80EF80635593F70902639F070C03C5240ED5
S31580202A90EF004044AA8A6316050E13F4097C5DCCA8
S31580202AA063040900EFF08F9603C5240EEF10F01B08
S31580202AB003C6240EAA8517650A001305A580EFB0E4
S31580202AC0F62159BC17550A001305C570EFA0E1659C
S31580202AD029BFFC7037F7FF0F1207F98F37070516C6
S31580202AE0930A81036398E7040C18814656862285CB
S31580202AF0EFE01FC0AA8501C917550A001305057284
S31580202B00EFB0D61DDDB542766300C402E276A2859B
S31580202B1017550A0013050573B296EFB0361C6276F8
S31580202B204275A285EFF0CFE64277F8F4D8FCE277BB
S31580202B30BA97FCE0FC6CA276014756869D8E81452D
S31580202B4005453EFCEF80365EE30F05EEEC6C1755AF
S31580202B500A0013052572EFB076180544E30509E0CF
S31580202B60EFF0CF8A09B503B50410EF501003938593
S31580202B70841013850410EF50500F2A84E31505DE48
S31580202B8031B793F70904A9E793F70908A5E393F7E3
S31580202B900910A5E713F4094071D05686D28513050E
S31580202BA00040EF00202E2A8463040900EFF00F8670
S31580202BB0F557E309F4DAFD57E317F4DA17550A00D7
S31580202BC013054577EFB09611EF40C22B7D5461BB3C
S31580202BD0D28513050004829A2A845DD5A28517554D
S31580202BE00A0013052573EFB0760FB5BBD285130582
S31580202BF00008829A2A847DF159BF03C7240E9547FF
S31580202C000D456303F7000145EFF01F87AA8501C9AB
S31580202C1017550A001305056EEFB0560C3DBFD285B9
S31580202C2013050010829A2A8455F9ADB70CF585656F
S31580202C3093850571D18D6FF07F8405661306F680A6
S31580202C4097550A0093858570D5B7411113060004E0
S31580202C50814522E006E42A84EFF08FC28547230C43
S31580202C60F40097C70E0083B7E7F21CF0A2600264D7
S31580202C70410182808280930700406313F5024111CF
S31580202C8006E403A6810B9C7190D983B6071094FD28
S31580202C90E8778945EFC06658A26005454101828064
S31580202CA001458280930700406318F5029C71B867BE
S31580202CB015C7411106E422E0E07717550A0013056F
S31580202CC06569A285EFB0960103B501000294A260E2
S31580202CD002640545410182800145828005458280C6
S31580202CE0930700406317F504011106EC22E826E4D9
S31580202CF08071854717550A001305C569646CA30042
S31580202D00F40EA685EFB0867D833784106C680146E5
S31580202D1099C303360410833604110337841126851C
S31580202D20158FEFF0B326E2604264A2640125056127
S31580202D30828001458280011122E806EC26E4847196
S31580202D402E84EF80C34811EDEC6817550A001305D1
S31580202D50E567EF804328E2604264A264014505610D
S31580202D608280FC740C7C08588297F5B793070040C4
S31580202D70631CF504397126F406FC22F89C71AE8416
S31580202D80B8670DCFF077000897550A0093850565BB
S31580202D902285EFB0E66E9C7C9C6322E43EE0EFE0E9
S31580202DA0FFAB2A8419C1EFE05FAB8A86094681454D
S31580202DB00145EFB0B00619C0EFE01FAAE270427459
S31580202DC0A274054521618280014582809307004057
S31580202DD06316F50A397126F406FC22F84AF04EEC81
S31580202DE052E856E483B90502AE8483B78904A1C329
S31580202DF017550A001305055FEF80A32219CD81455B
S31580202E00EFB0560103AA04032A84630D0A0403B98A
S31580202E108403A94A814463C6440303B4890E1755A3
S31580202E200A001305255EA285EFB0466B0294E270F8
S31580202E304274A2740279E269426AA26A05452161D6
S31580202E40828081C4230054010504833509002285AC
S31580202E508524EF90B637033509002109EF90D643B4
S31580202E602A9455BF17550A001305C558EF80631B52
S31580202E70AA8545D52285EF90763545B7014582804E
S31580202E8082808280011106EC22E826E44AE017C37C
S31580202E900E000333A3C3AE842A843289029317C3D8
S31580202EA00E000333239B0293A685228502999C706C
S31580202EB0014503C7170E85476308F700130504E00D
S31580202EC03335A0003305A040E2604264A2640269E3
S31580202ED0056182800E0597570D009387A707AA97CD
S31580202EE088638280A9461C6103C7070019C36313C0
S31580202EF0D700828085071CE1FDB71069AA8511E27B
S31580202F00106517550A001305E5536FB0265D13012A
S31580202F1001D923308126233C91242338212523302F
S31580202F204125233C512323386123233411262334FE
S31580202F3031253A8A03C705009307F0022A842E8911
S31580202F40328BB68A24106310F70683478501A1CF7A
S31580202F50230401024A85EF903634AA892685EF908C
S31580202F60B633AA999307002063F637054A86A68545
S31580202F7017550A001305854DEFB046561305C0FD3B
S31580202F808330812603340126833481250339012524
S31580202F9083398124033A0124833A8123033B012305
S31580202FA01301012782800C70130600202685EF905E
S31580202FB016234DB7CA852685EF903624A6851755C4
S31580202FC00A001305A54AEFB06651130901015A86F6
S31580202FD097550A00938585404A85EFB0664A1C64DA
S31580202FE03800D6864A86A68522858297E34A05F8C2
S31580202FF063140A00054569B7A2672330FA00DDBF4E
S31580203000397122F82A84328526F44AF04EEC06FC61
S31580203010AE843689BA89EF80E3111DC53000C1455B
S31580203020EFB00660AA87295563C9070022664E87B6
S31580203030CA86A6852285EFF09FEDE2704274A2743F
S315802030400279E269216182807955C5BF411106E402
S3158020305022E02A840865EFB0E102086CEFB0810295
S315802030600870EFB021020874EFB0C1010878EFB084
S315802030706101087CEFB001012860EFB0A1002864CF
S31580203080EFB041002868EFA0F17F22850264A2601C
S3158020309041016FA0317F397122F826F44AF056E437
S315802030A006FC4EEC52E8033A05002E84B68A2A891D
S315802030B0D2849306000297C50E0083B525BC83C7AC
S315802030C00400A9E3B389444113851900EFB0C118E0
S315802030D008E005C1014697C50E0083B525BA1C6058
S315802030E0639FC902CE9723800700233099008547A6
S315802030F01CC4E2704274A2740279E269426AA26AAE
S31580203100216182806319D6003387F5000347070043
S315802031101377070245FBE307F6FA85044DB7330795
S31580203120CA0003470700B297638C0A00B386E5007E
S3158020313083C60600858A89C61B0707021377F70F81
S315802031402380E700050661BF397122F84AF006FC24
S3158020315026F44EEC52E81C615D472A892E8498C558
S315802031603EE4814613050002A54503C70700630890
S31580203170A7046306B70491C23EE493073002631B1B
S31580203180F700A2670147294583C60700BE858DEED5
S3158020319011C33EE4A267A94603C70700631CD70272
S315802031A02324040085073EE4A2672330F900E270D9
S315802031B04274A2740279E269426A2161828085071B
S315802031C0854665B70547C9B78507E39DA6FE79D3AA
S315802031D02EE4C9B701E7094718C4E9B7894728000B
S315802031E06318F60081462946A285EFF0DFEA6DBF97
S315802031F0854613060002A28597590D00938989E496
S31580203200EFF07FE981444E8A83B50900D1DD0860DD
S31580203210C109EF90F60219E59204269A83278A003F
S315802032201CC459B78524CDB7797122F026EC06F4D3
S315802032304AE8AE8409468A85033905002A84EFF058
S31580203240BFF0224785476303F7020C604A861755ED
S315802032500A0013052523BB852541EFB0262829554D
S31580203260A2700274E2644269456182808267054564
S315802032709CE0FDB7797122F026EC06F44AE8AE840C
S3158020328009468A85033905002A84EFF0FFEB224719
S3158020329085476303F7020C604A8617550A00130593
S315802032A06520BB852541EFB066232955A27002741F
S315802032B0E26442694561828002642946814522858D
S315802032C0EFB0863B88C02285EFA0D15B0545F9BF4C
S315802032D001112AE417550A001305450F06ECEF70F5
S315802032E0736501CD2266C145EFB08633AA87FD97E7
S315802032F029557D8DE260056182807955E5BF011172
S3158020330006EC22E8D14763EEB70017550A0013056D
S31580203310E51AEFB0A61C9157E26042643E850561AE
S3158020332082802A84EFF0261AAA85300017550A0053
S315802033301305C51AEFF0E658F95779DD8347B100B2
S315802033408348D1000348C1000347A10083469100EA
S315802033500346810097550A009385C5182285EFB0CC
S315802033602612854755BF4971056786F6A2F25AFA15
S31580203370A6EECAEACEE6D2E256FE5EF662F266EEA7
S315802033806AEA6EE6FD77130101811307078D3E9762
S315802033901C10BA972E8417570A00130727FB13068B
S315802033A0400481452A8B1385877B23B8E77823BC05
S315802033B0077823B0077A23B4077A23B8077A23B805
S315802033C0077623BC077623B0077823A4077823863D
S315802033D00778EFE0FFCA2285EFF03FB285477CCCA5
S315802033E03C50BDC77C5063C3070417550A0013059C
S315802033F0E513EF703354AA8415C9087819CD93053F
S31580203400014F130600402EECEF300152E26517552E
S315802034100A00130525FEEF7073362685EF90C66762
S315802034209B05050001462685EFC0C139014513015C
S31580203430017FB6701674F6645669B669166AF27A92
S31580203440527BB27B127CF26C526DB26D756182803A
S315802034500C7091E90C6417550A001305250EEFB000
S31580203460E6070545E9B70147894617560A00130638
S31580203470E60E5A85EFF0DFB8635805000C641755C1
S315802034800A001305A50EE1BF17550A001305050D81
S31580203490EF703339833B8402AA8963820B04EF90D1
S315802034A0A65FAA840874EF90265FBB85A400852535
S315802034B02E852EECEFA0515AE265AA8B01E917558D
S315802034C00A001305A50DEFB0660161BF1874CE867C
S315802034D017560A0013068620EFA0D677DE890C7C45
S315802034E0639D0516033A840363100A183C4C858B2A
S315802034F0B9CF17550A001305E510EF7093322AF4D9
S3158020350017550A0013058510EF70B3312AF0175529
S315802035100A001305A510EF70D3302AEC17550A0040
S315802035201305C510EF70F32FAA8785647D75130563
S31580203530857B9384048D626782762276AA9408108E
S3158020354097550A009385050F2695EFA076733C4CF8
S31580203550898BA9C37D750569130505779307098D21
S31580203560AA971810B384E70097550A009385850D8E
S315802035702685EF90A645D54513858400EFF03FD864
S31580203580635A0500FD771307098D3E971C10BA975D
S31580203590238807763C4C04788D8B99E36382041CC0
S315802035A01309010F1306004081454A85EFE05FAD80
S315802035B089E497840B009384E46F2685EF90C64D2B
S315802035C0AA84856A7D751305857B93870A8DAA973C
S315802035D018103385E700EF90264CAA947D75130545
S315802035E0057793870A8DAA9718103385E700EF9081
S315802035F0A64A8504AA94930700400C7863FD970E0B
S315802036002E8589E517850B001305C56AEF90C64878
S315802036102AF005647D751305857B9307048D181024
S31580203620AA973385E700EF9026472AEC7D75130508
S3158020363005779307048D1810AA973385E700EF90B6
S31580203640A64562668275AA861307004017550A002A
S3158020365013054500EFA0966859A8086CEF90463E62
S31580203660E31205E84E8A59B51307014F8D46175642
S315802036700A001306A6F4D2855A85EFF07F98635AFE
S3158020368005000C6417550A00130545F4EFA016654E
S31580203690B9A80337014F85643A853AECEFA036699D
S315802036A0AA857D75130505749387048DAA971810AE
S315802036B03385E700EF90863117550A00130505F00C
S315802036C0EF7033162A8A7D75130505756267938791
S315802036D0048DAA9708103E95D28617560A0013069F
S315802036E0E6F1F145EFA01657ED47E3F1A7E05E85B9
S315802036F0EFA05119BDB391C5130600404A85EF90BE
S31580203700062E8564FD759385857B9387048DAE977C
S315802037101810B385E7004A85EF90262EFD75938590
S3158020372005779387048DAE971810B385E7004A8571
S31580203730EF90A62C9305014F130600404A852EEC68
S31580203740EF30811EE26517550A001305A5CAEF7072
S31580203750F302E26517550A00130545F2EFA01658C5
S3158020376017550A00130585F2EF70B30B8567FD7434
S315802037709387078DA69718102C60B384E70023B40F
S31580203780A47AE1C5086CEF90A62B61E123B4347B43
S3158020379085667D779387068DBA9718103E97233C4A
S315802037A037790944630D0A00FD77938707759386D9
S315802037B0068DBE961C10B6972330F77A0D44856702
S315802037C0FD749387078DA6971810B384E70083B777
S315802037D0847A89EB17550A00130545F6EF70730432
S315802037E023B4A47A4E85EF1020248567FD749387B1
S315802037F0078DA6971810B384E70083B7847A2A8921
S31580203800638807200567FD771307078D3E971C1071
S31580203810BA9703B7077A6306072211444A85EF10C1
S315802038200022AA87FD7603350B009386067963816D
S31580203830072285679387078DB6971810B386E7008A
S3158020384022868145EF70405E5DB50567FD7713075B
S31580203850078D3E971C10BA9703B7877A15DB033DF1
S315802038600404014963100D12386401E723B4077AF2
S3158020387005B717550A00130565E2EF70837AAA8487
S3158020388079E517550A001305E5E1EF708379AA8457
S3158020389017550A00130585E1EF70A378AA8A175C6D
S315802038A00A00130CACC691E4178C0B00130C8C40C9
S315802038B0E284975D0A00938DEDC563810A0A2864A8
S315802038C0975C0A00938C8CC5EF90061D9B0705009C
S315802038D028648DC3FD37AA9703C707009307F00294
S315802038E0978C0B00938C0C3D6306F700975C0A003F
S315802038F0938C4CC3EF90461A2A896685EF90C61919
S315802039003B09A9002685EF9026192A8D6285EF909E
S31580203910A6182AEC5685EF902618E26705293B09DA
S31580203920A9013B8927012A8D6E85EF90E6163B09F2
S315802039302D013B09A9004A85EFA011122A8D0DE59C
S3158020394017550A00130505D7EFA056394DB3978D25
S315802039500B00938D2D36EE8A6E8C95B7978A0B0049
S31580203960938A4A35568CA1BF6EE03464CA85D68840
S315802039706288A687668717560A001306A6D5EFA003
S31580203980762D6A890147A14617560A00130606D066
S31580203990EA855A85EFF0CFE6AA844A85EFA0816E24
S315802039A063DB04020567FD771307078D3E971C109E
S315802039B0BA9723B4077A3C6099C70C6417550A00D6
S315802039C0130545D2E1B12C6499C517550A00130514
S315802039D0E5D3EFA0B6303C54E38C07DA17550A00BE
S315802039E01305C5CAEF70E3638145EFA0B6422A84EA
S315802039F0EF809530E31E05D8930500202285EF4081
S31580203A00C070E357A0D885452285EF40A01149B3E1
S31580203A10EF10E0028947630AF50017550A0013055F
S31580203A20E5D2EF70036023B4A47A0567FD77130788
S31580203A30078D3E971C10BA9783B7877AE38007DE77
S31580203A40D1B317570A00130767AC23B0E77AF1B3CF
S31580203A5085679387078DB6971810B386E7002286E9
S31580203A608145EF80600561B101113800930600031E
S31580203A7022E806EC3284EFF08FC963480500A267FE
S31580203A8005453386870023000600E260426405618F
S31580203A9082801D71A6E4CAE04EFC52F856F486EC6C
S31580203AA0A2E8B2899061AE842A892C08268532E4E0
S31580203AB0368ABA8AEFF04FF72266635505028C6004
S31580203AC02A8417550A00130565C9919DEFA01621F2
S31580203AD0E66022854664A6640669E279427AA27AFD
S31580203AE025618280E2654E864A852EE4EFF0DFF7F7
S31580203AF0A2652A846359050017550A00130505C84F
S31580203B00EFA0D61DF1B74664E660A6645687D286B6
S31580203B10A27A427A4E86CE854A85E27906692561E1
S31580203B2009A0157186EDA2E9A6E5CAE14EFD52F9F6
S31580203B3056F55AF15EED62E966E56AE1EEFC2AEC1D
S31580203B402EF42EE8C14763CEE7029C003EF03C105F
S31580203B50B28A36893A8A3EE4D94C171B0D00130B5C
S31580203B602BC08275226505462274EFF0EFDDA647CD
S31580203B7063E9FC30836781048A07DA979C43DA9766
S31580203B808287C14517550A001305C5C0EFA01615B3
S31580203B908554EE604E640E69EA794A7AAA7A0A7B5F
S31580203BA0EA6B4A6CAA6C0A6DE67D2685AE642D6129
S31580203BB08280426585472322F902EF80F66D2A842A
S31580203BC0226505468C10A279EFF00FD8A657394783
S31580203BD06384E70251476383E7041147CA8563817B
S31580203BE0E704A2754E8617550A001305A5BCBB852A
S31580203BF03541EFA0B60E39A813064400A26562654A
S31580203C00719A1B071A00CA865696EFF09FE8AA84F7
S31580203C10E34105F82265EFF0EFACA1B79305890162
S31580203C202265EFF06FE0E5B7226593050902EFF094
S31580203C306FE4AA84E35705F2A9BF13050008A27989
S31580203C40EFA081612A8419E1D154A1B78145130659
S31580203C500008EFE0EFC2226593058400EFF0CFDC09
S31580203C6063510502A2754E8617550A00130505B7BE
S31580203C70BB853541EFA096062285EFF02FBDA9544E
S31580203C8009BF03370903930704072338F9029306EC
S31580203C90890234F838FC1CE3130D0105D54D971B9A
S31580203CA00D00938BABB122650546EA85A279EFF0AC
S31580203CB0AFC9E64763E6FD14836781058A07DE97E9
S31580203CC09C43DE978287226505468C10A279EFF089
S31580203CD0AFC7A65719476382E70231476395E70244
S31580203CE08337890099E70864EF8096682334A90092
S31580203CF021DD2265EFF00F9F7DB7226593050401B4
S31580203D00EFF08FD2FDB7A2754E8617550A001305A0
S31580203D1065AABB853541EFA0667CE1BF2265930508
S31580203D200402EFF06FD0AA84E34505E60870EF80A1
S31580203D30366408ECE30A05F0087097550A009385E7
S31580203D40E5ABEF80167DAA8939DDEF80766208F4AF
S31580203D50E30C05EE23800900B9B722659305040399
S31580203D60EFF08FCC187CAA841DEF087897550A002F
S31580203D70938545A9EF80F6791DC59309750093052E
S31580203D8000024E85EF80D64F3B0C35411B051C002B
S31580203D90EFA0814C08FC6286CE85EF805644187C45
S31580203DA0629723000700E3D004F0E5B31C7C9305DB
S31580203DB08403E39A07EE2265EFF00FC7AA84E5B75E
S31580203DC03C6093050404E39007EEF5B73C649305C5
S31580203DD08404E39A07ECC5B73C68E39607EC930521
S31580203DE00405D1BF85473CD0930544062265EFF074
S31580203DF06FC8E9B793058405D5BF85473CD465B59B
S31580203E004EF485B322652C18EFF00FC2AA84E342C4
S31580203E1005D86274E30704D40335890019C1EFA05D
S31580203E2061262334890035BB22652C18EFF0CFBF5D
S31580203E30AA84E34005D66274E30504D203350901DA
S31580203E4019C1EFA021242338890021BB4265EF8048
S31580203E50B64413063500A2656265719A1B071A005F
S31580203E60CA865696EFF0FFC2E9B3226593054902CA
S31580203E70EFF04FC0AA84E35605CE2265EFF08F86F9
S31580203E8009BBA275228617550A0013052598819DA0
S31580203E908DB38544FDB9130101DC23349122AA8494
S31580203EA017550A0013058598233C11222338812231
S31580203EB0233021232E843289233C3121EF80D63D25
S31580203EC0AA892285EF80563D4E959307002022862B
S31580203ED063FBA70297550A009385459517550A00D7
S31580203EE01305C595EFA0865F1305C0FD833081231A
S31580203EF003340123833481220339012283398121AA
S31580203F00130101248280200097550A009385059508
S31580203F102285EFA0E6564A86A2852685EFF0DFB475
S31580203F20F1B7011106EC22E826E44AE02A840861EA
S31580203F3013098402EFA001150864EFA0A114086874
S31580203F40EFA0411408740461631A25012285426416
S31580203F50E260A264026905616FA0C112130505F9AA
S31580203F60EFF0CF8E26858460C5B7011126E4AA841A
S31580203F70130580034AE006EC22E82E89EFA0C12DA6
S31580203F8029C51306800381452A84EFE06F8F930726
S31580203F9084021CF41CF84A86CA850547A286268593
S31580203FA0EFF03FB883C714032A8999CB1C6895C73D
S31580203FB017550A001305858BEFA046521C681CE412
S31580203FC0635609002285EFF0DFF50144E260228501
S31580203FD04264A26402690561828017550A0013052E
S31580203FE0E58AEFA0A64FE9BF1971A2F8D6E486FC30
S31580203FF0A6F4CAF0CEECD2E8DAE05EFC62F866F48B
S315802040006AF06EEC2E848C51AA8A2945A525BBC5DB
S31580204010A5025050086081480148814717F7FFFF65
S315802040201307E7ED8146EF800147630E0510AA84CA
S3158020403017550A0013050588EF60B37E83398402FD
S315802040402A89014C814B0546130B8402974C0C0020
S31580204050938CCC37054D639C6905630B0900631EE1
S315802040600C0ACA8517550A0013054586EFA0064710
S3158020407063960B0A2C002685EF80A11F2A89268528
S31580204080EF80814A8547631DF90AA2655685EFF040
S315802040908FAD55C9007463088B0A8327C4FE91E7C8
S315802040A0930504F95685EFF00FAC0060EDB7138ABF
S315802040B009F9E68552859B0D1600EFA0663C52864F
S315802040C0D2852685EF8041336303A5034674E67047
S315802040D00679E669466AA66A066BE27B427CA27C02
S315802040E0027DE26D2685A67409616F80E1430C64AA
S315802040F099C503B589F9EF80B61411E1D28B63088F
S31580204100090003B589F9CA85EF80961311C1628AA1
S3158020411083B90900528C6E863DBFE28BDE8526856B
S31580204120EF80610F8547E307F5F4F957E310F5FA39
S315802041300C6417450A001305657BEFA0263A1DBF40
S31580204140F957E309F9F4E6704674A6740679E669A8
S31580204150466AA66A066BE27B427CA27C027DE26D81
S31580204160096182805D71A2E04AF82A844EF452F079
S3158020417056EC5AE85EE4328BAE8BB68A3A8AC2898E
S31580204180468913068003814526FC86E4BE84EFD0CB
S315802041903FEF233074012334640123385401230CE8
S315802041A0440123083403A3082403B1C02685EF8065
S315802041B0B60E9307F01F115763EFA7002685EF8071
S315802041C0361B08F0515701C985E801451C70014707
S315802041D0AA9723800700A6600664E2744279A279B2
S315802041E0027AE26A426BA26B3A8561618280178588
S315802041F00B00130525ACE1B79305F0022685EF80E9
S31580204200560F61D5058D0505D1B708716F909167D9
S31580204210011126E44AE006EC22E8AA843289EFF0EE
S31580204220DFD411ED17450A001305C56DEFA0062BC7
S315802042300545E2604264A2640269056182802A841F
S315802042406304090085475CD1A2852685EFF0DFD9F6
S315802042502285EFF01FCD0145E9BF1D71A6E48A8432
S31580204260A2E8AA852A8413060004268586ECEFD048
S315802042703FF213060004A685014502C2EFC09F8D3A
S315802042805C401B0705003706FF009BD687011B95E0
S315802042908701558D9B968700F18E558DC1669BD75C
S315802042A08700938606F0F58FE66046645D8D01254E
S315802042B0198DA6641335150025618280011122E8A7
S315802042C026E44AE006EC5C453709FF00C1641BD72B
S315802042D087011B968701598E1B9787003377270185
S315802042E0938404F09BD78700E58F598E5D8E2A8430
S315802042F0C1669305050401260145EF6056791C4C5D
S315802043001B070500E2609BD687011B958701558D8B
S315802043109B968700B3F626019BD78700E58F558D20
S3158020432042645D8D0125198DA264026913351500BD
S31580204330056182809307050401459843910711E31F
S3158020434082800505DDBF797122F026EC4AE84EE4AD
S3158020435006F4AE84AA8932843689EFF0BFFD63FBEA
S31580204360A4081388090493972400C2979843370694
S31580204370FF0081459B5687019B178701D58F9B160A
S315802043808700F18E41661B578700130606F0D58F6E
S31580204390718FD98F821781932330F9008146370315
S315802043A0FF0063EE960005050A0542952E9508E0E6
S315802043B0A2700274E2644269A26945618280939701
S315802043C02600C297984385269B5887019B1787018D
S315802043D0B3E717019B188700B3F868001B5787003F
S315802043E0B3E71701718FD98F8D27F19B8217819320
S315802043F0BE9545BF23300900014555BF854763FDDE
S31580204400B702011122E826E406ECAA8417440D009F
S31580204410130444DB1C406359F000094693050401CC
S315802044202685EF80D60319E50840E2604264A264BF
S31580204430056182806104F9BF295582801C4163D43D
S31580204440070001458280E38FB7FE6105C5BF411114
S3158020445022E02E84B28506E4EFF05FFE11C100696A
S31580204460A26022850264410182802A8697450A00BD
S315802044709385C55B17450D0013054539C9BF2A8627
S3158020448097450A009385855B17450D001305854E54
S315802044907DBF2A8697450A009385C55B17450D0003
S315802044A01305C5EE6DB71D715AF0067BA2E8A6E40A
S315802044B0CAE04EFC52F856F486ECAA842330BB0020
S315802044C013F5F60FB28A2E893A8ABE8942E446844B
S315802044D0EFF03FFC2A86A5E497450A009385055987
S315802044E06316590197450A009385C55717450A00D3
S315802044F013054558EF90967ECA8517450A00130501
S31580204500E559EF90B67D8D47638EF40863C1970495
S31580204510A1CC85476389F406A68517450A0013052D
S31580204520E558EF90B67B1305A0FDE6604664A66449
S315802045300669E279427AA27A027B25618280AA85FF
S3158020454017450A0013050554EF90567975B7954798
S31580204550E394F4FCA26502140190340852864E85B9
S3158020456022ECEF40961C81A8630D59012266021425
S31580204570019011556363C402C166CE855285EF00D2
S31580204580E044014519A834004E86A2855285EF4025
S31580204590F60D9307A0FDE301F5F8A267CA972330AD
S315802045A0FB0061B7A266021401904E862C085285C4
S315802045B022ECEF703554E2673EE4E1BF2A869745C8
S315802045C00A009385255117450D00130525D06FF0D8
S315802045D01FE819719306050213060002A2F8975563
S315802045E00B00938525302A8417450A00130505502C
S315802045F086FCA6F4CAF0CEECD2E8D6E4DAE05EFCFD
S3158020460062F8EF90B66D97550B009385A52D1745CB
S315802046100A001305254FEF90766C1C443709FF005E
S31580204620C1641BD787011B958701598D1B978700EE
S3158020463033772701938404F09BD78700E58F598DA4
S315802046405D8D02150191EF00101297550B00938511
S31580204650652917450A001305654CEF903668034592
S31580204660C401EFF09FE02AEC0345D401EFF03FE14F
S315802046702AE80345E401EFF0DFE12AE40345F4016B
S31580204680EFF0DFF3A2666266C2652A8717450A00C5
S315802046901305454AEF90966497550B00938585249C
S315802046A017450A001305054AEF9056635C441BD7CD
S315802046B087011B958701598D1B97870033772701A3
S315802046C09BD78700598DE58F5D8D0125EF00D0061C
S315802046D01C4897550B009385E52017450A0013053E
S315802046E0E5471BD787011B968701598E1B97870025
S315802046F0337727019BD78700598EE58F5D8E0126DC
S31580204700EF90D65D5C4897550B009385A51D174580
S315802047100A00130525461BD787011B968701598ECC
S315802047201B978700337727019BD78700598EE58F84
S315802047305D8E0126EF90965A8347E401114793F6C2
S31580204740D70F639BE6082285EFF0DFBE2A8997552F
S315802047500B009385251917450A0013052543EF90ED
S31580204760F6578144130A8102930A010297590B0056
S3158020477093894917174B0A00130B4B42994B174CB9
S315802047800A00130CAC4263EE2401E6704674A674CC
S315802047900679E669466AA66A066BE27B427C0961EF
S315802047A08280D2865686A6852285EFF0DFB9268638
S315802047B0CE855A85EF9096522255EF00E077834733
S315802047C0E40163997701635790000276CE856285EE
S315802047D0EF90D650852445BF13070002E397E7FA6A
S315802047E058441C4846749B5687011B168701558E54
S315802047F09B168700B3F62601558E9B9587019BD6FF
S315802048008701D58D9B968700B3F626011B57870097
S315802048109BD78700E6700679E669466AA66A066BA4
S31580204820E27B427C658FE58FD58DA674518FDD8D99
S315802048307976399E9B8505FC17450A0013058538B0
S3158020484009616F90B6492A8697450A009385053A6D
S3158020485017450D00130585A16FF07FBF011122E852
S3158020486026E406EC2A84B2841C4063D407007D5556
S3158020487001A8086419C9A685EF80C61419E50840E1
S31580204880E2604264A264056182806104F1BF2A8667
S3158020489097550A00938505BD17450D00130505F725
S315802048A075BF2A8697450A009385453517450D009D
S315802048B01305450C65B72A8697450A0093850551C9
S315802048C017450D00130585AC51BF2A8697450A00EA
S315802048D09385C52017450D001305459F41B72A8628
S315802048E097450A009385053117450D0013050598D0
S315802048F0B5B7759A05E241112E85814506E4EF907C
S31580204900765197A70E0083B7E76688E3A2600145B4
S315802049104101828001458280411117550A00130585
S31580204920E5E306E4EF60E36F19C5A2604146814561
S3158020493041016F90565EA26005457E0541018280C9
S31580204940011117550A00130565E206EC22E826E4D4
S31580204950EF60236D09C94264E260A26441468145C5
S3158020496005616F90565B03B4810583B4010383B7D9
S3158020497081033307940063F4E700B3848740175597
S315802049800A001305A5DDEF60C369A28711C54146DC
S315802049908145EF905658AA872694E2603305F440E5
S315802049A04264A26405618280411117550A0013056D
S315802049B0E5DC06E4EF60E36619C5A26041468145E1
S315802049C041016F905655A26041019DBF6384A50029
S315802049D06FD00FFC828039714AF006FC22F826F4CB
S315802049E017A90E0003390959AE868335090015C5E6
S315802049F0B284300832E42A84EF408013226609ED9F
S31580204A0083350900A6862285EF40801711E58145EA
S31580204A102285EF9036402AECE265E2704274A274D9
S31580204A2002792E8521618280011130008A8506ECEB
S31580204A3002E002E4EFF03FFAE260056182801841ED
S31580204A403706FF009B5687019B178701D58F9B16BC
S31580204A508700F18ED58FC1661B578700938606F017
S31580204A60758FD98F37270527812713076795638CFD
S31580204A70E700411106E4EF703528A2601335150052
S31580204A800605410182800545828028693335A0004C
S31580204A9082801971A2F8A6F4CAF0CEECD2E886FC00
S31580204AA023B0060023300700AA842E84328AB68952
S31580204AB03A8931C597450A00938545A5EF70567882
S31580204AC005C53C6882E482E03EFCBDE0306C9745BB
S31580204AD00A009385A5472285B2E4EF502031F95705
S31580204AE0631FF50A014519AC02F802F422777DDBB3
S31580204AF0C27723B0E900BA972330F900E5B72E852F
S31580204B00EFF0BFF85DFD3C64E5D30347640291472F
S31580204B10E31CF7FC0C6017550A001305A5CEEF9011
S31580204B20F61B0860141830108545EFF0DF817DBFB5
S31580204B303C70A5C32C6CB0003418268532EC2EE848
S31580204B40EF30107FC265626619E994002685EF40B2
S31580204B50200311E581452685EF90D62BAAE426658C
S31580204B60EFF0FFED85476303F50489476308F51465
S31580204B70638F04169305A0032685EF7076706308ED
S31580204B80051681450505EF90F628A6672AF83EF496
S31580204B90B1BF97A70E0083B7E73D8C6369BFE3500B
S31580204BA005FC9307F0FBE30FF5F289AAA665175556
S31580204BB00A001305A5BDEF907612A6643706FF007E
S31580204BC003248413984017350A001305A5379B566E
S31580204BD087019B178701D58F9B168700F18ED58FEE
S31580204BE0C1661B578700938606F0758FD98F372726
S31580204BF00527812713076795639AE7002685EFF0B7
S31580204C00CFE509E917350A0013054535EF80E151CF
S31580204C107955EDA02685EFF0DF9B15C417350A0060
S31580204C2013054535EF8061502685EFF02FE911E594
S31580204C3017350A0013050536D1BF17350A00130527
S31580204C406536EF80814E03C7C40195471375FA0FE9
S31580204C506311F70283C7D4016308F5000947639A75
S31580204C60E700D9476317F50003C7E4018D47630C36
S31580204C70F700EFF0DF80AA8517550A00130585B463
S31580204C80EF90D60571B7C9D4D844938704043EF4EF
S31580204C909B5687019B178701D58F3706FF009B166A
S31580204CA08700F18ED58FC1661B578700938606F0C5
S31580204CB0758FD98F821781933EF80DBD1C18A665F6
S31580204CC03EE43C103EE08948130880078D471377E1
S31580204CD0FA0F341890002285EF50C014E34305EC78
S31580204CE026672320A40838F8066738FC01B51755AF
S31580204CF00A00130525AFEF8041432955E670467497
S31580204D00A6740679E669466A09618280397122F835
S31580204D102A8417550A00130565B326F44AF04EEC0B
S31580204D2006FC52E82E89B284B689EF60832F19C992
S31580204D308145EF90360E2AE015EC23B0040023B08F
S31580204D4009004DA0EFF05FC62A8AEFF0FFBC2A9AB1
S31580204D5052E065D402650147CA863335A0000A86AB
S31580204D6085650905EF60363C31C517550A00130560
S31580204D70E5B035A0FD57E31FF5FC80E0B30724019D
S31580204D8023B0F9000147CA8630008145054522E4D3
S31580204D90EF60763921C917550A00130525ACEF80B7
S31580204DA0C1387D55E2704274A2740279E269426A02
S31580204DB021618280026617550A00130525AE90E090
S31580204DC04A9623B0C9008C60EF9046718860C16690
S31580204DD04A86A285EFF09FBF17350A001305851CEA
S31580204DE0EF80A13401457DBF6F5020567571CAF87A
S31580204DF006E522E1A6FCCEF4D2F0D6ECDAE8DEE4B3
S31580204E00E2E066FC6AF82A89EFF03FC805E10145B1
S31580204E10AA600A64E6744679A679067AE66A466BBB
S31580204E20A66B066CE27C427D49618280833489054B
S31580204E302685EFF0DFC08947631BF50A8335090590
S31580204E402685014AEF40306617E70E00130707D301
S31580204E5097E70E00938787D23384E7401184AA8907
S31580204E60930A090501240147D28617560A0013069C
S31580204E70E6A5CE852685EF80B5282AF449D91C104B
S31580204E803EE43C083EE089481308000AD947694732
S31580204E90D6863010A6854A85EF40D078E34A05F637
S31580204EA0A2752685EF30305BAA85E34305F6130687
S31580204EB071012685EF301064E34C05F4626C827CA8
S31580204EC0034D7101814B17EB0E00130B2BCB639493
S31580204ED08B00052A49BF83270B006397A701833759
S31580204EE08B00E68562858297852B410BCDB717553A
S31580204EF00A001305A59EEF90665E054511BF011138
S31580204F0022E806EC833785102A84033505103EE493
S31580204F10EF30A0482C0013050410EF30005509E926
S31580204F20A26799C78335041005462285EF30F02184
S31580204F30E260426405618280411122E0AA852A844A
S31580204F4017550A001305059D06E4EF90265913157B
S31580204F5004020264A26097D50C009385A5980191DE
S31580204F6041016F50167C39712C0006FCEF90D6706B
S31580204F702248B2474247D2466246F24517550A0032
S31580204F801305459AEF908655E270216182801D71C6
S31580204F90A2E82A8417350A00130545F486ECA6E490
S31580204FA0CAE04EFC3E8952F856F4B284368ABA89D3
S31580204FB0EF60A31DAA8A2285EFF07FA88547630D1F
S31580204FC0F50089476305F50E17550A00130585AC4C
S31580204FD0EF80A1157D5591A818403706FF001755FB
S31580204FE00A001305A5969B5687019B178701D58FA7
S31580204FF09B168700F18ED58FC1661B5787009386B7
S3158020500006F0758FD98F3727052781271307679550
S31580205010639AE7002285EFF04FA40DE117550A0029
S3158020502013054594EF8061100545E6604664A664C5
S315802050300669E279427AA27A25618280638B0A00A8
S315802050402285EFF0AFA711E517550A001305859243
S31580205050D1BF0347E401994717550A001305859266
S31580205060E312F7FC3C40B705FF00130704041BD668
S3158020507087019B968701D18E1B9687006D8ED18E58
S3158020508041669BD78700130606F0F18FDD8E821648
S31580205090819217550A001305E58FC9D61C4311073F
S315802050A0F5FF23B0E9002320D9000145BDBFFD557A
S315802050B02285EF40D03411C517550A001305858EF9
S315802050C095B7C1E063040A0283470A0085C3D28567
S315802050D02285EF40503DAA8563520504D285175517
S315802050E00A001305A58DEF90663F3DBF8145228539
S315802050F0EF40703BAA8563530502E3110AFE97555C
S315802051000A009385A58D2285EF80E54FAA85635A6F
S31580205110050417550A001305E58E29B781461746DB
S315802051200A00130626E42285EF40D043AA856355DC
S315802051300504E3060AFCD28517550A001305858ADD
S315802051405DB783C70400C5DFA6852285EF30B030E2
S31580205150AA8563530502A68517550A001305858CF3
S3158020516059B7814617360A001306467D2285EF8079
S31580205170C525AA8459DDC9BF194622852EE4EF406C
S315802051801023A26511E517550A001305A58B59BD75
S31580205190638D0A0022852EE4EF40100CA26511E56E
S315802051A017550A001305858BB5BD3408100822854E
S315802051B0EF30705111C517550A001305258B9DB503
S315802051C04267E266F9BD797106F422F026EC4AE858
S315802051D04EE4AA8908652E89EF70160C1B040500FB
S315802051E04A85EF70760B9B04050063DC840083B7C9
S315802051F08900B30594404A85BE95EF70760411E107
S31580205200059CA27022850274E2644269A269456186
S315802052108280397106FC22F826F44AF04EEC2A84E4
S315802052204841AE893289EFF0D1242800EF10004C16
S31580205230AA840DEDA26783E78705B3D73701858BCF
S3158020524095E7630C09004840EFF0B122AA851755EF
S315802052500A0013052588EF9066281C6885E3A266D8
S31580205260054733173701BC4ED98FBCCEE2704274C6
S315802052700279E2692685A27421618280CA85228587
S3158020528082979B072500F59B8127F1DBAA84F9BFAE
S315802052906F10403E1D71A2E8A6E4CAE04EFC86EC63
S315802052A036891465040832872A84AE8917560A00FF
S315802052B01306C683F9452685EF90C6192685EF7095
S315802052C0360B1DC52A8634002285CE85EFF0814790
S315802052D02A8419E52265EFE03137A2672330F90069
S315802052E0E66022854664A6640669E2792561828025
S315802052F05154FDB72D7106EE22EA26E64AE2D2F90E
S31580205300D6F5CEFDDAF1AA8A886E2E893284B684C5
S31580205310EFE01115032A85004A85EFE071141848BD
S31580205320F54763CEE71023B424011448AA890A8B53
S31580205330D1C617460A001306E67BD1455A85EF90DB
S31580205340661183B68A00930A81015A8717460A0016
S315802053501306C6799305C0035685EF90A60F56850A
S31580205360EF701601AA8788F05155C9C31C48886CEE
S31580205370A2859CC8EF00506C35E90C48B0084E8554
S31580205380EFB011681848137A2A00AA8721E3795743
S31580205390631EE50285479CD4F9471CD01C40139791
S315802053A0B70263480700184839EF4E85EFC0E143BE
S315802053B048D0886CA685EF0010690DA897450A000D
S315802053C09385C5735A85EF706660A5BF130710FA5B
S315802053D06388E702054798D4E1D3E31F0AFA184881
S315802053E085476315F7008D471CD07955F260526446
S315802053F0B2641269EE794E7AAE7A0E7B156182801E
S31580205400130540F9D9BFE3160AFAC18B81CB5C50CC
S3158020541063C6070085C3CA572955E9DB8C484E8564
S31580205420EF60F33889479CD471F18D4723B42401EA
S315802054309CD441B785472955E302F7FE45BF13051E
S3158020544040F96DB73971340826F43686AE84E9453D
S3158020545022F806FC2A8436E4EFE0111509CDB557EB
S31580205460A266631AF50017460A001306A669A68562
S315802054702285EFF03FE2E2704274A274216182803D
S315802054805971CEE4AE8997450A0093852568A2F0A6
S31580205490A6EC2A8486F4CAE8D2E0EFF0DFD283B77E
S315802054A0010418642400858BADE7BA851306D002E3
S315802054B02685EF70865F97450A009385A5652685A4
S315802054C0EF70A6532285EFE0310D0A8A5286A68593
S315802054D02A89EFE0110A2A8405C5B5576312F50299
S315802054E02685EF70E6682A86515419C9D286CE85DC
S315802054F04A85EFF021252A8401E50265EFE0D11463
S31580205500A67022850674E6644669A669066A656180
S315802055108280AA8697470A009387C75E17460A0025
S315802055201306C65F930520032685EF80B67259BF82
S31580205530597186F4A2F0A6ECCEE42A84AE89CAE814
